S02100003438302D30303332332D52312E302E33392D50524F442D494D472E733337FE
S3150000000008080020D5010000ED2500006729000042
S315000000106F29000077290000732900007B29000062
S31500000020ED250000ED25000004400000ED25000050
S31500000030ED2500004C400000ED250000ED250000F8
S31500000040ED250000ED250000ED25000083290000C8
S31500000050ED250000ED250000ED250000ED25000052
S31500000060ED250000ED250000ED250000ED25000042
S31500000070ED250000ED250000ED250000ED25000032
S31500000080ED250000ED250000ED250000ED25000022
S31500000090ED250000ED250000ED250000ED25000012
S315000000A0ED250000ED250000ED250000ED25000002
S315000000B0ED250000ED250000ED250000ED250000F2
S315000000C0ED250000ED250000ED250000ED250000E2
S315000000D0ED250000ED250000ED250000ED250000D2
S315000000E0ED250000ED250000ED250000ED250000C2
S315000000F0ED250000ED250000ED250000ED250000B2
S31500000100ED250000ED250000ED250000ED250000A1
S31500000110ED250000ED250000ED250000ED25000091
S31500000120ED250000ED250000ED250000ED25000081
S31500000130ED250000ED250000ED250000ED25000071
S31500000140013800D0FCE7704710B5054C237833B969
S31500000150044B13B1044800E000BF0123237010BD17
S315000001609C08002000000000D442000008B5034BA4
S315000001701BB10349034800E000BF08BD00000000B2
S31500000180A0080020D4420000064B0748DA1C121AC9
S31500000190C11E22F00302994288BF0022034903F0E0
S315000001A006BF00BF9C08002010080020CC430000BA
S315000001B0064B0748DA1C121AC11E22F003029942A6
S315000001C088BF0022002103F0FFBE00BF400D0020C3
S315000001D09C08002008B5084B83F30A88074B084A99
S315000001E0C3E9002200F00EF800F056F9FFF7CCFF45
S315000001F0FFF7DEFF00F0AAF908000020080800203B
S31500000200A5EDF5FE044B054A9A60D3F8882042F422
S315000002107002C3F88820704700ED00E0000000007F
S31500000220F0B5421ED11C034685B019D86E460D4C5A
S3150000023004F11007354620686168083403C5BC42DE
S315000002402E46F7D10DF10F010F3311F8010912F8FF
S31500000250014F844204D19A42F7D1012005B0F0BD86
S315000002600020FBE7F03F00002DE9F041036804465B
S3150000027003F16043B3F5004F4FF00000A0B029D85A
S31500000280826A636816699E4224D8B3F5002F21D886
S31500000290656B06F14003AB4268D8B5F5002F65D80B
S315000002A02846FFF7BDFF002860D0284602F0F6F981
S315000002B080B16B6973B1022B0FD1AB69C4F1040134
S315000002C019444FF0FF32204601F096FA284BC31A24
S315000002D05842584120B0BDE8F08140F204632846F8
S315000002E00493FFF79DFF08B90020F3E7284602F0C4
S315000002F0D5F90028F8D00027D7F834804046FFF714
S315000003008FFF0028F0D0503EB045EDD8284605A90D
S3150000031002F0CBF90028E7D0BA6A059B12699A4227
S31500000320E2D89C42E0D8B3F5002FDDD806A801F04C
S315000003301FFB059A2146121B06A803F0AFF906A873
S3150000034003F0AEF9059C01F027FB039001F028FBB2
S3150000035021460090039B04F1200206A801F08EFAC4
S3150000036004900498B0FA80F04009B3E70120B1E7A1
S31500000370E320BBDE30B54FF0FF3289B005460C46B0
S3150000038001F03AFA0D4B984215D140F2022000F0E6
S315000003905BFA1C22002101A803F016FE084B294631
S315000003A06846009303F0F7F96846211F03F0F3F956
S315000003B0684601F0D7FC002009B030BDE320BBDE63
S315000003C00100064310B5044688B040F2022000F052
S315000003D03BFA1C22002101A803F0F6FD054B21463D
S315000003E06846009303F0D7F9684601F0BBFC00208D
S315000003F008B010BD0000034340B139B100230B60C3
S31500000400034B03600B6843F480430B60704700BFE7
S31500000410000400401A481B4E1B4FDFF878C04FF00F
S315000004200003014632463C466546914203D00B60C6
S3150000043001F10401F9E7AC4203D0236004F104049E
S31500000440F9E74FF4C045114E114F4FF0005C4FF0E5
S31500000450000432463B4661468A4201D102F104025B
S315000004609A4203D0146002F10402F9E728460168B3
S3150000047081F3088881F3098840688746FEE700BF54
S31500000480100800209C0800209C080020080000207E
S3150000049008080020400D002013B501244FF040232A
S315000004A08DF806408DF80740D3F894305B060BD5DF
S315000004B000F0EAF9A0F2022080B2072804D804FA74
S315000004C000F010F0C90F02D100F0E8FC20B10023C3
S315000004D08DF806308DF807304FF4C0435B68013362
S315000004E008D14FF4027000F0AFF900238DF8063002
S315000004F08DF807309DF8073063B14FF4C040FFF721
S31500000500B3FE8DF806009DF806301BB94FF4027055
S3150000051000F09AF99DF806308BB14FF400330721AD
S315000005204FF4C040074A936602F52032C2F8201104
S31500000530A2F51C329366044B9860FFF76BFF02B07E
S3150000054010BD00BF0090004000ED00E0A74BF7B5DE
S315000005501B68C3F30743012B0ED1A54B04205A6E2B
S315000005604FF48023A349550358BFA34A4B6601F5B0
S315000005701041086258BF53664FF400439D499F4A95
S315000005808B66536A082043F470235362D3689C4CED
S315000005909BB243F0BF6343F41033D3604FF4403350
S315000005A0A2F54062C2F88001E3601060954A1361CB
S315000005B04FF04023D3F88420140606D44FF400628B
S315000005C01A67D3F88420D006FBD44FF480328E4BC2
S315000005D04A668949D3F804364A669A6852020BD5A8
S315000005E01A69063203EB8203019300231946019A26
S315000005F0D1500433242BFAD1824B844A00259A60C9
S315000006004FF4A042C3F87052C3F874224FF4C042AC
S31500000610C3F88022C3F884227D4A9D60774B22F07E
S315000006201F02C3F8D850C3F8DC2045F6E172C3F8C0
S31500000630E0200122C3F8D8204FF0A042C3F8DC2006
S31500000640744A754EC3F8E0200222C3F8D820734AD4
S31500000650C3F8DC60C3F8E020D3F8D02042F00102F2
S31500000660C3F8D020BFF34F8FBFF36F8FD3F88C2022
S3150000067042F44062C3F88C20D3F8C02042F0FF0257
S31500000680C3F8C020D3F8C02022F47F4242F4884247
S31500000690C3F8C020D3F8C02022F47F02C3F8C020DC
S315000006A0BFF35F8F5A6A22F480325A62D3F89420DD
S315000006B022F00102C3F89420BFF34F8FBFF36F8F70
S315000006C046F203075648C3F89850C3F89C70C3F81F
S315000006D0A000BFF35F8F0521C3F894105A6A42F455
S315000006E080325A62BFF34F8FBFF36F8FBFF35F8FB6
S315000006F04C4C636A23F480336362D4F8943023F05D
S315000007000103C4F89430BFF34F8FBFF36F8FC4F863
S315000007109850C4F89C70C4F8A000BFF35F8FC4F86B
S315000007209410636A43F480336362BFF34F8FBFF361
S315000007306F8FBFF34F8FBFF36F8F4FF400320721D8
S315000007402C4B9A6603F52033C3F82011A3F51C330E
S315000007509A664FF400429A6602F001F9324A009610
S31500000760009B93423BD34FF4A0431A6882F38888D8
S3150000077082F38988A3605C68640864002046214689
S3150000078022462346B7EE000AF7EE000AB7EE001A35
S31500000790F7EE001AB7EE002AF7EE002AB7EE003A97
S315000007A0F7EE003AB7EE004AF7EE004AB7EE005A07
S315000007B0F7EE005AB7EE006AF7EE006AB7EE007A77
S315000007C0F7EE007A03F0B5FB4FF4017000F048F83D
S315000007D04FF4017000F044F8002003B0F0BD009B18
S315000007E01D60009B04330093BAE700BF0080E00F52
S315000007F0008000400090004000A0004000ED00E0B6
S3150000080000A000440080004400C0074055CEAC0064
S31500000810E0420000E1FFFFBF00600020E17F002012
S31500000820E1FF070000ED02E0008000204AF6C0303C
S31500000830044B5B8823F00F039BB21B1A58425841A6
S31500000840704700BF00000020044A08B51080FFF77B
S31500000850EDFF10B94FF20F03538008BD00000020D2
S3150000086008B5FFF7F1FFBFF34F8F0549054BCA687F
S3150000087002F4E0621343CB60BFF34F8F00BFFDE786
S3150000088000ED00E00400FA054FF20F01084B5A880C
S315000008908A4201D1188870473AB91B8840F2022073
S315000008A0012B18BF4FF4007070474FF4007070476B
S315000008B000000020014B1888704700BF0000002090
S315000008C04FF4003208B5044B9A6601F0B3F9B0FA5A
S315000008D080F0400908BD00BF00900040072BF8B526
S315000008E006460F4614461D4601D90020F8BD0121D3
S315000008F0202001F011F90121212001F00DF98CB120
S3150000090044EA06039B07F0D14FF40032064B31460A
S315000009109A66284623463A4601F0B6F9B0FA80F0C0
S315000009204009E3E70120E1E70090004010B50446E6
S3150000093000F054FA074BB0FBF3F304FB03F0022874
S3150000094006D9BDE810400323B0FBF3F0FFF7F8BB70
S3150000095010BD00BF40420F001FB510240D4B5C6652
S3150000096000F03CFA4FF47A23B0FBF3F00A4B224630
S3150000097018600021684603F027FB01238DF800303C
S3150000098040F2FF3369460548ADF8023002F013FF26
S3150000099004B010BD00900040B8080020008004405C
S315000009A030B50D4D0D4A2D68536A15FB00F010FA4F
S315000009B083F09CB280B2A0422CBF00240124084BD5
S315000009C01880084B1C7011B1536A8342FCD1012375
S315000009D005494B61936130BDB80800200080044092
S315000009E0B80A0020BA0A002000A00440094B0A4AAF
S315000009F05869127800F001000AB108B9704738B991
S31500000A00586A064B1B88984234BF00200120704765
S31500000A100120704700800440BA0A0020B80A00206E
S31500000A202DE9F84FDFF89881574BD8F80020574E3C
S31500000A309A42574F07D12823C8F80430554B3360E4
S31500000A404FF480233B60544B02F13C01DFF8749174
S31500000A50996002F12403C9F82430C9F804304FF034
S31500000A608063DFF864A14FF0010BCAF864304FF4DD
S31500000A708073CAF8643002F58053C3F804B040F6B8
S31500000A80AA630024536141F20503444D444802F52C
S31500000A9000519460D465D3601461D461D4648864D1
S31500000AA0C5F81C46C5F83446C5F82C46C5F8244694
S31500000AB0C5F82846D3609368936000F08FF9394BE8
S31500000AC04FF4E1121B6F0721C3F380235B44B0FB95
S31500000AD0F3F303F5E1435B01B3FBF2F3324A203B48
S31500000AE002EAC303D8F800200220D3615B46042241
S31500000AF001F034F85B465A460321584601F02EF8B9
S31500000B0014230522C5F81C36284B0321C5F83436B4
S31500000B10274B2848C5F82C36D8F800305A614FF0D4
S31500000B20F052254BCAF86410C3F804B09A605C62B0
S31500000B309C631C645C653A6802607A7B1A66FA7A82
S31500000B40BC7A120542EA04423C7B42EA4452DA6528
S31500000B50C3F8709032684260727BC3F89020F27AD4
S31500000B60B07A120542EA0042307B42EA4052C3F8AC
S31500000B708C20124A51630222C3F848B003F5805311
S31500000B801A61BDE8F88F00BF00C00540CC08002000
S31500000B90BC080020020004005008002000C00340EA
S31500000BA0FFFF010000800040F8FF7F000200070001
S31500000BB001000300004004400000044000200440FF
S31500000BC060080020100800200090004008B5054B82
S31500000BD000215A68186800F04BF9034B034A5A661D
S31500000BE008BD00BF6008002000A00040030000040C
S31500000BF0084B586B10F0020006D002229A6203F5E9
S31500000C00005301205A637047DB6A9B07FBD402221C
S31500000C10014BF6E700000440002004407F2938B568
S31500000C200446154624D8FFF7E3FF20B32046134BAE
S31500000C30621890420DD1124B01391A8861F30E12D7
S31500000C401A80104AC2F8A0300223936435B90020F6
S31500000C5038BD10F8014B03F8014BEAE7FFF7C8FF70
S31500000C600028FBD0084B1A6893699B06FCD5EEE773
S31500000C7041F20310ECE741F20620E9E7BB0C002045
S31500000C80500800200000044060080020014608B516
S31500000C90FFF7AEFF0028FBD0054B1B689A6950068C
S31500000CA0FCD5D9639A699206FCD5002008BD00BF21
S31500000CB0600800200E4BD86E40F2011398420FD008
S31500000CC040F2022398420DD00A4BC01A0A4B1B6809
S31500000CD083420AD02ABFC3F50073C01AC0187047F2
S31500000CE00020F3E74FF48070F0E70020704700BF64
S31500000CF000000440BB0A0020DC0800202DE9F84370
S31500000D00089F04460D461646F3B9FFF7D3FFA842DF
S31500000D1028BF284600214FF001084FF002091D4A5E
S31500000D20DFF878E013681C4F04EB000C64451DD116
S31500000D3001B1136006B1306041F20423A84234BF0A
S31500000D4018460020BDE8F8832FB1FFF705FE002105
S31500000D503846FFF725FEFFF7ADFFA842D5D2002F94
S31500000D60F9D0FFF743FE0028F5D0CEE71EF80310B2
S31500000D700133B3F5007F04F8011B04D10023C7F843
S31500000D8010900121D2E7B3F5807F08BFC7F8108025
S31500000D90F7E700BFDC08002000100440BB0A002073
S31500000DA010B10222094B9A6271B101220020074B51
S31500000DB007499A624A6307491967074908609A64AE
S31500000DC0022203F580531A61002070470000044098
S31500000DD00020044010080020DC08002030B51C4B21
S31500000DE087B001AA03F1100514461868596808333C
S31500000DF003C4AB422246F7D11B782370154B1B6FF9
S31500000E0003F00703032B1FD04FF48022124B5A66C0
S31500000E10124A9368C3F30443102B17D818336B4454
S31500000E2013F8143C0E480F4943438B4203D1926892
S31500000E30C2F30162D340074A106FC0F3033001309A
S31500000E40B3FBF0F007B030BD074BF4E7074BF2E712
S31500000E509C400000008000400090004000000140DF
S31500000E6040420F0000093D0000F04902C0EA21019E
S31500000E7040F60A43436100234FF48072490101F1B1
S31500000E80804101F57031C1F81C36034B5A664FF4A8
S31500000E9000725A66704700BF00A000404FF08062A3
S31500000EA0164B13B55A66062101230422022000F0D0
S31500000EB055FE00230093009B632B19DD02220123BC
S31500000EC00621104600F04AFE00230193019BB3F56C
S31500000ED0FA7F10DB0A4B00225C6F062101230220F9
S31500000EE000F03CFE6FEA941000F0010002B010BD65
S31500000EF0009B0133DEE7019B0133E6E700900040EB
S31500000F0000C0034030B500220C24064B04FB02F15E
S31500000F10CD58854201D1581830BD01320C2AF5D181
S31500000F200020F9E7B04000007FB50023CDE900338B
S31500000F30082315460DEB0302044602F0FDF941F2C3
S31500000F4003039842064626D194F8433063B108223B
S31500000F50E06C0DEB020102F0A1FB08230DEB03028E
S31500000F601146A06C02F089FB039A029B6A6094F812
S31500000F7043202B605AB9094A934208D0084A934243
S31500000F8005D00822E06C0DEB020102F087FB6B68CE
S31500000F90236500236365304604B070BDF70A0AF77F
S31500000FA0FC0404FC2DE9F04100254FF0FF3804460F
S31500000FB00F46164603F0200380F842301822FF2120
S31500000FC0C0E91855A0F8405080F84350A0F84450A6
S31500000FD080F84650C0F88880683002F0F5FF882215
S31500000FE02946C4E91276C4F88080C4F8848004F1E6
S31500000FF0900002F0E9FF094BC4F82081C4E94635A8
S3150000100084F8245137B12EB1304600F0B1FC2846A1
S31500001010BDE8F08141F20B00FAE700BF00010101D3
S315000010202DE9F04FA5B09846CDE9112300230446DB
S315000010300D462E9E1393139A424501D30020D8E005
S3150000104094F84630132BF7D8DFE813F06C00BB009A
S315000010506600510038002C00C8013800C001380075
S315000010607A013800C001AE022903140019015502A5
S31500001070550227034FF00009636D0F2B50D8012747
S31500001080102314AA2046CDF80490009711A902F067
S3150000109053F941F203030890089A9A4200F0E1805E
S315000010A0089B4BE04FF00109D4E91432934200F259
S315000010B0F08084F8469041F203033FE04FF00109C7
S315000010C0D4E91417B9422BD9C91BDDE91272BF1A2C
S315000010D094F840200329174440F28881032F00F238
S315000010E08881204611A902F006F9002326E001278F
S315000010F0636D072BDFD8082314AA2046CDE90077B5
S3150000110011A902F019F941F203030B900B9A9A42C6
S3150000111000F02B810B9B11E00027636D072B22D972
S31500001120012358E114AA204611A9FFF7FDFE41F25A
S3150000113003020590059B934208D0059B049341F258
S315000011400303049A9A423FF476AF51E0159A149934
S31500001150226500226265A34A914240F01181022273
S3150000116084F84620EAE7012314AA009320460823C0
S31500001170019711A902F0E0F841F203030690069ADE
S315000011809A4201D0069BD9E7149B03F07F43B3F143
S31500001190407F05D0132384F8463041F20903CDE79A
S315000011A0159AD00707D594F84230D10543F00103CC
S315000011B084F84230B1D4132384F8463041F20A034E
S315000011C0BCE7204614AA11A9FFF7AEFE41F20303BD
S315000011D00790079F9F420FD0079F41F20303049792
S315000011E0049A9A423FF427AF049B0BB10023EB709D
S315000011F0049825B0BDE8F08F1498FFF783FE28B950
S31500001200132341F2080784F84630E6E7437994F859
S3150000121024219A4205D9132341F20E0784F8463059
S31500001220DBE7026870498A4205D00289D20748BFC7
S31500001230013384F8243194F84230D9070DD5028958
S3150000124094F84330920706D53BB1132341F20107C8
S3150000125084F84630C1E7002BF7D0037984F846308E
S31500001260BBE7D4F848A000F09FFB80230221CDE91C
S31500001270000315AA3B46504600F0D6FAFCE6226D5E
S315000012800123A265002284F84330E26584F84630E3
S31500001290D1E614AA2046CDE9009911A902F04CF82E
S315000012A041F203030990099A9A4201D0099B45E746
S315000012B014AF05F108030DF1680C3A4603CA6245FE
S315000012C018605960174603F10803F6D110681860D4
S315000012D02B7843F001032B70E6E62B7843F00403EA
S315000012E02B70179BAB626B785F0726D5EB238DF8C7
S315000012F0503017238DF85130A6238DF852305E23D7
S3150000130000208DF85330236D6066C4F8843094F85D
S31500001310453043F0020384F84530F7686FB1042284
S31500001320336814A9B8470822606E3368F76816A9AF
S315000013301044B847636E103363660B2384F8463057
S31500001340636D072B3FF6B7AE012316AACDE900332E
S315000013502046082311A901F0EFFF41F203030A908A
S315000013600A9A9A42B9D00A9BE8E62B78159A43F076
S3150000137002032B70149B6B60236D083B6B622AB1D2
S31500001380132384F8463041F20103D7E6042384F898
S31500001390463094F84530626643F0010384F84530E0
S315000013A0A6E6042314AA2046CDE9007711A901F088
S315000013B0C3FF41F203030C900C9A9A4201D00C9B96
S315000013C0BCE6236D042B02D9149B23660127636DAB
S315000013D0032BE6D9092384F846306CE600236366BE
S315000013E0072353E7EB17A603F90707F98F42FFF424
S315000013F078AE402928BF40218F4228BF0F46032FD1
S3150000140088BF27F003073B4614AA2046CDE900997A
S3150000141011A901F091FF41F203030D900D9A9A4232
S3150000142001D00D9B8AE694F846A0BAF1070F04D1C5
S31500001430D6F808B0BBF1000F1BD1042FC7F1040B7F
S3150000144088BF4FF0000B14AB5A46FF21D81902F0A3
S31500001450BBFDBAF1090FBB4414D133465A462046A8
S3150000146014A901F0DEFF0D900D9B002B3FF428AE72
S31500001470D7E73A463368606E14A9D847626E3A4495
S3150000148062661DE6BAF1040F21D16B7898077FF5E5
S3150000149017AEF368002B3FF413AE626E042A0BD826
S315000014A00BEB0203062B07D915AB9B1A1A68C4F877
S315000014B084204FF0FF321A605A463368606EF76830
S315000014C014A9B847626E0BEB02076766F8E5BAF136
S315000014D00B0F7FF4F5AD6B7859077FF5F1ADD6F8B4
S315000014E00CA0BAF1000F3FF4EBAD5A463368606EBC
S315000014F014A9D047E6E700218A6A496B1269503A77
S3150000150091423FF640AF112B0FD194F81831002BC2
S315000015107FF406AE41F206030E930E9A9A4202D16A
S31500001520132384F846300E9B08E694F84430002BCB
S315000015307FF4F6ADCDE9003314AA4023204611A965
S3150000154001F0FAFE41F203030E900E9A9A42EAD196
S31500001550E06C02F0A5F894F81831A3B104F1B403D5
S31500001560E06C00931CAA04F1940314A900F086F918
S315000015700E900E9B9BB10023EB70132384F846302C
S3150000158041F20603DAE5E76C00F006FA039000F094
S3150000159007FA039B00901CAA384614A9E6E7012324
S315000015A0EB7084F84430BBE5002314AACDE9003380
S315000015B02046042311A901F0BFFE41F203030F9058
S315000015C00F9A9A4202D00F9B049311E6D4F8882012
S315000015D0344B9A4205D0132384F8463041F2050372
S315000015E0F2E794F8443033B9EB70132384F84630AD
S315000015F041F20603E8E7EB78002B47D094F8453034
S31500001600DA0707D5F7682FB104223368104604F1CC
S315000016108401B84794F845309B0707D5F7682FB182
S3150000162004223368104604F18401B847236E6BB375
S3150000163077685FB34FF0FF3304F18001042210A8EE
S315000016401093039102F0A3FC28B1042248F204008F
S3150000165033680399B84704F168090422494610A87B
S3150000166002F095FC90B100239B6A1422D3F81080F7
S3150000167004F16C0108F10800D6E90037B847D6E94D
S3150000168000370422494608EB0200B8470123AB7035
S315000016900E2384F84630002396E70023EB7041F2D0
S315000016A00700A6E5E320BBDE13B5224C01902C22F1
S315000016B00021204602F088FCFF22019B62701E4931
S315000016C01E4A1F48FFF76EFC02B0B7EE000ABDE8DF
S315000016D01040714672467346F7EE000AB7EE001ADE
S315000016E0F7EE001AB7EE002AF7EE002AB7EE003A38
S315000016F0F7EE003AB7EE004AF7EE004AB7EE005AA8
S31500001700F7EE005AB7EE006AF7EE006AB7EE007A17
S31500001710F7EE007A8EF3008C10B4F1EE10CA4FF695
S315000017206074C0F6FF740CEA040CE1EE10CA10BC3B
S31500001730F44674476808002048090020E0080020A5
S3150000174090090020F7B506460F46144601F03EFA0A
S3150000175008B901F035FA254D254B32460093294646
S315000017603B462448FFF75CFC2B782370AB7863700C
S31500001770EB78A3706B6863606B6AA360AB6AE36027
S3150000178003B0B7EE000ABDE8F040714672467346F4
S31500001790F7EE000AB7EE001AF7EE001AB7EE002AC7
S315000017A0F7EE002AB7EE003AF7EE003AB7EE004A37
S315000017B0F7EE004AB7EE005AF7EE005AB7EE006AA7
S315000017C0F7EE006AB7EE007AF7EE007A8EF3008C39
S315000017D010B4F1EE10CA4FF66074C0F6FF740CEA4E
S315000017E0040CE1EE10CA10BCF446744768080020E9
S315000017F0404100009009002030B50824094B00251F
S315000018005C66012403F5FE235C6001449D601A6159
S31500001810DC60884201D1586A30BD10F8012B1A628B
S31500001820F7E700BF00900040F8B516464FF40052A7
S315000018301D46114B04469A660222C3F860220F46E3
S3150000184002F099FADDE90612204602F098FA002322
S3150000185084F8387063623368C4F839307368C4F842
S315000018603D30B368C4F841302B0C6DBA84F845306E
S31500001870A4F84650F8BD00BF009000402DE9F041A5
S31500001880B0B014460646369D00286AD0002968D0B6
S31500001890002A66D0002B64D0002D62D006224FF4B9
S315000018A000500692304A20AF90660320C2F86002CC
S315000018B00022BE4609920C920F920A4601F12008B8
S315000018C0F446106851680832ACE803004245E64623
S315000018D0F6D122460DF1A00C04F1200E64461068E4
S315000018E05168083203C47245A446F7D10DF1400C85
S315000018F01A46644603F1200E2346106851680832E2
S3150000190003C372451C46F7D12B4618AC2035224638
S3150000191018685968083303C2AB421446F7D140230E
S31500001920CDE90A73089320230AAA0E9303AB07CACC
S31500001930CDF81CC00D9683E8070007AB93E80700B7
S315000019408DE807000DAB0ECB084802F062F9069051
S31500001950069B40F20460002B08BF002030B0BDE8B3
S31500001960F08140F20160F9E700900040A8420000D3
S315000019704FF40052074B10B59A6602220446C3F88C
S31500001980602201F090FE2046BDE81040002101F0E3
S315000019908EBE00BF00900040004870474CE3070031
S315000019A0004870476CE307000048704786E207006E
S315000019B02DE9F34799460A9B0C46196805463F29C7
S315000019C0164642D85A68002A41D0224A002E14BF31
S315000019D0B046904601F03F07091928BF5A681960BA
S315000019E024BF01325A60AFB1C7F1400AA24521D8DF
S315000019F02946524609EB070002F0D9FA012341466F
S31500001A0000934A463346002001F06AFEB046403C49
S31500001A1055443C443F2C0CD9A3092A460093414621
S31500001A203346002001F05CFE24F03F031D4404F021
S31500001A303F0400272CB12246294609EB070002F095
S31500001A40B6FA002002B0BDE8F0879046C2E7DFF89C
S31500001A500480BFE75041000030B4054608461146F1
S31500001A601A46DDE9023425B931B1029430BCFFF7DC
S31500001A709FBF024830BC70470846FBE780AFFFFFB8
S31500001A802DE9F0411746146886B01E46E3008DF82E
S31500001A900F30630952688DF80E30630B8DF80D30E8
S31500001AA0630D8DF80C30D30003EB54738DF80B30B7
S31500001AB004F03F045309372C8DF80A304FEA5233AD
S31500001AC04FEA525205468DF80820884694BFC4F165
S31500001AD03802C4F17802CDE900178DF809300D49B6
S31500001AE003460020FFF7B8FF082143462A46009721
S31500001AF00DEB0100FFF75CFF284605F1200350F8C7
S31500001B00042B984246F8042BF9D1002006B0BDE814
S31500001B10F08100BF70410000420910B510D0012AC3
S31500001B2010D00B4B0B4C022A18BF234600F01F00A7
S31500001B3051B103F58053012202FA00F0186010BD7E
S31500001B401346F3E7044BF1E703F50053F3E700BF51
S31500001B50688000406082004064800040F8B504461A
S31500001B600D461F4616464AB101238B403021194ABD
S31500001B7001FB0022FFB141F21001535004EB440374
S31500001B80072D4FF00F014FEA031317D8A80006FAE6
S31500001B9000F281401048184401F0ECFD56B90121CD
S31500001BA030230C4801FA05F503FB040077B141F236
S31500001BB01003C550F8BD42F21001DEE7A5F108009A
S31500001BC0800006FA00F281400448E4E742F210037E
S31500001BD0EFE700BF00C0034004C003400CC0034051
S31500001BE0F0B5114A114C124E00F00105E3695F078A
S31500001BF013D40DB9334213D103EA00078F4207D13C
S31500001C000B4A1A40002A14BF6FF001000020F0BDF5
S31500001C10013AEBD16FF00200F9E74FF0FF30F6E73B
S31500001C206FF00100F3E700BF8096980000000340C4
S31500001C30020001004FF4003238B50F4B0F4C9A6684
S31500001C4041F671330122E569E3630D4B0021DA6049
S31500001C50022360612120236105F48035FFF7C0FF70
S31500001C6010B92120FFF7BCFF0122064BDA600DB147
S31500001C700023E36338BD00BF00900040000003402E
S31500001C8000100340002003402DE9F04F06464FF4B4
S31500001C90402501202C4CDFF8BCC04FF40037CCF8AF
S31500001CA0040044F8265030250024DFF8ACE0DFF8C5
S31500001CB0AC9005FB06E5EC652C662C67234CDFF83B
S31500001CC0A0A0A76641F6713704F51C34D4F81C8031
S31500001CD0E763E76800FA06F60743E7604BB9E26890
S31500001CE018F4803F22F00102E26000D0E363184658
S31500001CF028E001F5005000EA0900401A984228BF82
S31500001D0018466161D4F81CB087081BF0040F17D180
S31500001D10013F3F0147F060576F66AA66C5F86CA0A1
S31500001D20CCF82460DEF834703E42FBD0084F014404
S31500001D307E630427CCF82860024427611B1ACDE78E
S31500001D404FF0FF30BDE8F08F0040044000900040A7
S31500001D5000200440001004400000044000E0FFFFA3
S31500001D60180003402DE9F843C3690446042B6FD8D5
S31500001D7001F0F9FC4FF48032364B3749586E03F5C3
S31500001D8080535A66354D364BC003C1F80036C1F84C
S31500001D9004565CBFA1F5E4214A66324AE6691A6038
S31500001DA02268314D5A6004F10C03C4F1204203EB62
S31500001DB0860102F598428B4202EB030020D13046A1
S31500001DC00027636803BB39460446254A41EA066193
S31500001DD091601368516892684B4053400022A242BA
S31500001DE031D145F82230BFF34F8F2049204BCA68C6
S31500001DF002F4E0621343CB60BFF34F8F00BFFDE7F1
S31500001E0053F8047B0760D6E70022D3F8009005EB71
S31500001E10800ED3F808C0F046CCF3990C624502EB6D
S31500001E20070102EB00040EF1040E06D35A68012ADC
S31500001E30CBD00F4620465B68C4E759F82210013222
S31500001E40C8F80010E5E755F8221001324B40C6E706
S31500001E50BDE8F8830080004000C00740004E00A0A7
S31500001E60004C00A0DEC0ECE50C4C00A000ED00E04C
S31500001E700400FA054FF48031174B10B5586E03F580
S31500001E808053596603F5E623D3F8043603F1C042BE
S31500001E90A2F58042B2F5606F01D9002010BDC203E1
S31500001EA05CBF0E4A516619680D4A9142F5D11A690E
S31500001EB00532B2F5007FF0D200210C46914205D3DF
S31500001EC053F82200031B58425841E7E753F8210014
S31500001ED001314440F2E700BF0080004000A000400E
S31500001EE0DEC0ECE538B50F4B0F495A6E4FF4803320
S31500001EF0D20358BF0D4A4B6601F5E621D1F80456C8
S31500001F00044658BF536630B1FFF7B4FF30B1002026
S31500001F106B68236038BD4FF4E020FBE74FF47E008A
S31500001F20F8E700BF008000400090004000A000409D
S31500001F3060B5054619B10139B1F5806F10D2094E69
S31500001F40F06810F48030FBD143EA0121120741EA20
S31500001F50050302F08052134343F00043736060BDF3
S31500001F600120FCE70020024C0122054B9A60DA684A
S31500001F70D203FCD4D86820F00F000004000C704790
S31500001F800020024C014B1868704700BF0010024C3D
S31500001F90044B1A6842F480721A601A6822F480723E
S31500001FA01A6070470010024C024B186B00F00E00CE
S31500001FB0704700BF0010024C82B01FB507930A9B02
S31500001FC004AC8B4228BF0B4604E907001048D10039
S31500001FD0079948BF03330160099948BF23F00303FB
S31500001FE023F0704301F0E041194341F00051816054
S31500001FF0002102F0E042019C134343F00053C1600C
S3150000200004618361416304B0BDE8104002B07047CB
S315000020100000024C3F22034B1A631022DA610322AE
S315000020209A6370470000024C024AD36B9B07FCD4AC
S31500002030704700BF0000024C034B986A10F0240062
S3150000204018BF0420704700BF0000024C08B5FFF718
S31500002050F3FF064BDB6B23F47F4323F0EF030343CD
S315000020601EBF0122024BC3F8FC2F08BD0000024C24
S3150000207000F0FF3F032208B5054B186019615A634B
S31500002080FFF7C8FFFFF7D0FFBDE80840FFF7DEBF48
S315000020900000024C42680346182A10B50AD0202ACE
S315000020A01DD0102A2BD1174AD2F80424D4010AD401
S315000020B0012013E0134AD2F804249001F8D50A68E7
S315000020C042F008020A6010481A6882424FF0000087
S315000020D00ED10A6842F040020A60586010BD094AF3
S315000020E0D2F804245201E3D50A6842F00402E9E773
S315000020F0064CA242F2D10A6842F08002ECE70720C1
S31500002100ECE700BF0000024C3B0D00203C0D002018
S315000021100B4607B50749D1F80414C90708D50021AD
S3150000212000920246084600F033F803B05DF804FB5F
S315000021300120FAE70000024C0B4607B50749D1F823
S315000021400414C90708D5009201210246002000F0B8
S315000021501FF803B05DF804FB0120FAE70000024C0B
S315000021601FB50A4CD4F8044464070CD5CDE9001217
S315000021700021069C0222CDE902340346084600F0FF
S3150000218031F804B010BD0120FBE700BF0000024C8F
S31500002190F0B51C465B6815468DB01A07129E1AD11B
S315000021A0CBB17268934216D10C4B0D4A53F821708D
S315000021B009AB07CA83E807001A462946CDE9053365
S315000021C0CDE90333CDE90163009447F4807001F053
S315000021D042FC0DB0F0BD0720FBE700BFE041000068
S315000021E0B04100002DE9F0418CB0DDE9127C7C683D
S315000021F01E46DDE9143E200728D13CB3DCF8040076
S31500002200844223D15868102820D1DEF80400102813
S315000022101CD10F4809AC50F821500E4951F82280C4
S315000022200D4A07CA84E8070045EA080022463146F7
S31500002230CDE9054ECDE90344CDE901C4009740F050
S31500002240300001F008FC0CB0BDE8F0810720FAE789
S31500002250E0410000BC410000B04100000138C0B2BE
S3150000226006289ABF014B185C00207047BC4200004C
S315000022700138C0B206289ABF014B185C002070478F
S31500002280C34200000138C0B206289ABF014B185C51
S3150000229000207047CA4200002DE9F04FBBB08046CF
S315000022A003A880E80E007E4B9DF81091D3F8002419
S315000022B0D40603D401203BB0BDE8F08F08F1FF320D
S315000022C0059EDDE903A7062A00F2E780DFE802F0B3
S315000022D0041A20262C323800D3F80C34D807E9D556
S315000022E0012307930023B9F1010FCDE908332DD05F
S315000022F0B9F1020F00F092804046FFF7C3FF632456
S31500002300054631E0D3F80C349907D3D50223E8E724
S31500002310D3F80C345A07CDD50423E2E7D3F80C34AE
S315000023201B07C7D50823DCE7D3F80C34DD06C1D577
S315000023301023D6E7D3F80C349C06BBD52023D0E770
S31500002340D3F80C345806B5D54023CAE7544BD3F816
S315000023500C34D903AED5079B404643F4C0630793BC
S31500002360FFF77CFF0324054613230422009307A9E5
S315000023704FF0005312A801F02BFB5146009446F093
S3150000238000533A4601F024FB4FF0000B04465E462C
S31500002390DDF814A1469B9B4564D1B9F1030F0AD120
S315000023A04046FFF76FFF874277D14046FFF760FF51
S315000023B00138304271D1002E67D1032332462046C0
S315000023C0009308A9334601F003FB04260446A4F152
S315000023D01000029001F012FB3146029801F019FB41
S315000023E0489AAA4228BF2A461446002A53D00023F8
S315000023F0479900930AA8499B01F0EAFA2A1B04D0E0
S3150000240000231946009301F0E3FA103801F0F6FABA
S3150000241012A80AA9FFF72EFE00204CE7204BD3F89E
S315000024200C24D2037FF546AFD3F80C349B037FF51B
S3150000243041AF97B17C423946374604F00304079B07
S31500002440404643F4E0630793FFF708FF24023E4645
S3150000245005460F4644F0A30486E704210DF1200A41
S315000024600C46ECE7DAF8042016444AB1032300933D
S315000024702046DAF80830DAF8001001F0A9FA044626
S315000024800BF1010B0AF10C0A84E716F0030618BFDC
S31500002490C6F104069BE70AA8B0E707200BE700BFD2
S315000024A00000024C08B5FFF773FD0122014B1A70BC
S315000024B008BD00BF3D0D00204FF40052034B002025
S315000024C09A660322C3F86022704700BF009000405E
S315000024D008B5FFF757FDC30708D5FFF765FD0628C2
S315000024E004D00A28F5D1FFF7DDFFF2E74FF40052DA
S315000024F0034B00209A660322C3F8602208BD00BF82
S3150000250000A00040C3438B426DD332F01F036AD153
S31500002510013902F01403014400B581EA000C142BC2
S315000025200ED8DFE803F03F0D0D0D480D0D0D0D0D16
S315000025300D0D0D0D0D0D510D0D0D1000DB0200D40E
S3150000254000205DF804FBBCF11F0F40E8C0F304D97E
S315000025509C4641E8C0F39C45F2D122F01402013AB0
S315000025600A2AEDD801A151F822F000BF9F250000EC
S31500002570E1250000992500004125000041250000C5
S315000025804125000041250000DB2500009F250000B5
S315000025903D250000992500009A02D2D4D0E71A03FF
S315000025A0CFD4CDE7BCF11F0F40E800F3D5D99C4648
S315000025B041E800F3CFE7BCF11F0F40E840F3CCD968
S315000025C09C4641E840F3C6E7BCF11F0F40E880F3A4
S315000025D0C3D99C4641E880F3BDE75B03B0D5B0E7BD
S315000025E05902AED5ACE70020704700BFFEE7C0F346
S315000025F00C032DE9F04105460F4616460BB9FEF7CA
S315000026005FF905F5005424F4FF5424F01F0405EB8C
S315000026100608A04507D8324639462846BDE8F041A7
S315000026200223FEF75BB92046FEF74AF904F500548B
S31500002630EFE770B40025AD6A03462E69864206D8D8
S315000026406C6913449C4202D370BCFFF7D0BF70BCC8
S3150000265070471FB510F5004F00F50043144603936D
S315000026601AD2039BB3F5FC2F16D2039BC3F5FC23AA
S31500002670934211D348B9836A5A69B2F5004F04D917
S3150000268018690191FEF71CF901992246039804B0D6
S31500002690BDE81040FFF7ABBF04B010BD036913F0EF
S315000026A0FE0F0CBF01200020704738B504460D46CA
S315000026B0FDF7B6FD48B16369012B09D12046FFF746
S315000026C0EDFF08B1A3692B6038BD01202C60FBE744
S315000026D00020F9E700239B6A9868704738B5002305
S315000026E09B6A04461B695D6B2846FDF799FD08B198
S315000026F02B6A236038BD08B5FFF7F4FBB0FA80F00B
S31500002700400908BD4FF0FF3313B5044601A80193F5
S31500002710FFF7F1FF20B1019BA3422CBF002001204F
S3150000272002B010BD08B5FFF7EDFFBDE808407146E1
S3150000273072467346B7EE000AF7EE000AB7EE001AC5
S31500002740F7EE001AB7EE002AF7EE002AB7EE003AC7
S31500002750F7EE003AB7EE004AF7EE004AB7EE005A37
S31500002760F7EE005AB7EE006AF7EE006AB7EE007AA7
S31500002770F7EE007A8EF3008C10B4F1EE10CA4FF625
S315000027806074C0F6FF740CEA040CE1EE10CA10BCCB
S31500002790F446744708B54FF40040FDF713FEBDE854
S315000027A00840714672467346B7EE000AF7EE000A15
S315000027B0B7EE001AF7EE001AB7EE002AF7EE002A77
S315000027C0B7EE003AF7EE003AB7EE004AF7EE004AE7
S315000027D0B7EE005AF7EE005AB7EE006AF7EE006A57
S315000027E0B7EE007AF7EE007A8EF3008C10B4F1EEB5
S315000027F010CA4FF66074C0F6FF740CEA040CE1EEE2
S3150000280010CA10BCF446744708B501464FF40040A0
S31500002810FDF7B0FDBDE80840714672467346B7EE57
S31500002820000AF7EE000AB7EE001AF7EE001AB7EE46
S31500002830002AF7EE002AB7EE003AF7EE003AB7EEB6
S31500002840004AF7EE004AB7EE005AF7EE005AB7EE26
S31500002850006AF7EE006AB7EE007AF7EE007A8EF3BA
S31500002860008C10B4F1EE10CA4FF66074C0F6FF7417
S315000028700CEA040CE1EE10CA10BCF446744708B525
S31500002880FFF728FFBDE80840714672467346B7EE6B
S31500002890000AF7EE000AB7EE001AF7EE001AB7EED6
S315000028A0002AF7EE002AB7EE003AF7EE003AB7EE46
S315000028B0004AF7EE004AB7EE005AF7EE005AB7EEB6
S315000028C0006AF7EE006AB7EE007AF7EE007A8EF34A
S315000028D0008C10B4F1EE10CA4FF66074C0F6FF74A7
S315000028E00CEA040CE1EE10CA10BCF446744708B5B5
S315000028F0FFF7F4FEBDE80840714672467346B7EE30
S31500002900000AF7EE000AB7EE001AF7EE001AB7EE65
S31500002910002AF7EE002AB7EE003AF7EE003AB7EED5
S31500002920004AF7EE004AB7EE005AF7EE005AB7EE45
S31500002930006AF7EE006AB7EE007AF7EE007A8EF3D9
S31500002940008C10B4F1EE10CA4FF66074C0F6FF7436
S315000029500CEA040CE1EE10CA10BCF44674470020E1
S315000029607047002070474FF40170FDF779BFFFF7FD
S31500002970FABFFFF7F8BFFFF7F6BF4FF40370FDF796
S315000029806FBFFFF7FABFB1F5057F10B504460FD349
S315000029904FF40572002101F017FB04F5CE7204F521
S315000029A0AA7104F12C000023BDE81040FEF7FABA24
S315000029B040F2052010BD13B50446009101462C30A7
S315000029C0FEF72EFBC4F8100218B141F20703984235
S315000029D009D1A3784BB140F2032040F20223E278FA
S315000029E0002A08BF184602B010BD40F20120FAE7DF
S315000029F02DE9F04387B00DF1080904460E46174647
S31500002A000021102248461D46DDF8388001F0DCFA28
S31500002A1000211C22C8F80010284601F0D5FA3246DB
S31500002A203B462146CDF8009004F12C00FEF7F8FA5B
S31500002A3023789A0744BF6268C8F80020DB0709D5E7
S31500002A4004F1080304F1240253F8041B934245F8E9
S31500002A50041BF9D1237840F20640002B18BF002052
S31500002A6007B0BDE8F0834FF40570704708B5FDF771
S31500002A70F7FEBDE808407046714672467346B7EEEB
S31500002A80000AF7EE000AB7EE001AF7EE001AB7EEE4
S31500002A90002AF7EE002AB7EE003AF7EE003AB7EE54
S31500002AA0004AF7EE004AB7EE005AF7EE005AB7EEC4
S31500002AB0006AF7EE006AB7EE007AF7EE007A8EF358
S31500002AC0008C10B4F1EE10CA4FF66074C0F6FF74B5
S31500002AD00CEA040CE1EE10CA10BCF446744708B5C3
S31500002AE0FDF7B2FEBDE80840704671467246734671
S31500002AF0B7EE000AF7EE000AB7EE001AF7EE001A74
S31500002B00B7EE002AF7EE002AB7EE003AF7EE003AE3
S31500002B10B7EE004AF7EE004AB7EE005AF7EE005A53
S31500002B20B7EE006AF7EE006AB7EE007AF7EE007AC3
S31500002B308EF3008C10B4F1EE10CA4FF66074C0F636
S31500002B40FF740CEA040CE1EE10CA10BCF44674479C
S31500002B5008B5FDF7AFFEBDE80840714672467346FC
S31500002B60B7EE000AF7EE000AB7EE001AF7EE001A03
S31500002B70B7EE002AF7EE002AB7EE003AF7EE003A73
S31500002B80B7EE004AF7EE004AB7EE005AF7EE005AE3
S31500002B90B7EE006AF7EE006AB7EE007AF7EE007A53
S31500002BA08EF3008C10B4F1EE10CA4FF66074C0F6C6
S31500002BB0FF740CEA040CE1EE10CA10BCF44674472C
S31500002BC04FF4037008B5FDF74BFEFEE708B531B1CB
S31500002BD01322FFF797FC003818BF012008BD0846EE
S31500002BE0FCE708B5FDF7A2FEBDE808407046714651
S31500002BF072467346B7EE000AF7EE000AB7EE001A01
S31500002C00F7EE001AB7EE002AF7EE002AB7EE003A02
S31500002C10F7EE003AB7EE004AF7EE004AB7EE005A72
S31500002C20F7EE005AB7EE006AF7EE006AB7EE007AE2
S31500002C30F7EE007A8EF3008C10B4F1EE10CA4FF660
S31500002C406074C0F6FF740CEA040CE1EE10CA10BC06
S31500002C50F446744708B5FDF77FFEBDE808407046A8
S31500002C60714672467346B7EE000AF7EE000AB7EEF3
S31500002C70001AF7EE001AB7EE002AF7EE002AB7EEB2
S31500002C80003AF7EE003AB7EE004AF7EE004AB7EE22
S31500002C90005AF7EE005AB7EE006AF7EE006AB7EE92
S31500002CA0007AF7EE007A8EF3008C10B4F1EE10CABB
S31500002CB04FF66074C0F6FF740CEA040CE1EE10CA1D
S31500002CC010BCF446744708B5FDF76AFEBDE8084037
S31500002CD07046714672467346B7EE000AF7EE000A72
S31500002CE0B7EE001AF7EE001AB7EE002AF7EE002A42
S31500002CF0B7EE003AF7EE003AB7EE004AF7EE004AB2
S31500002D00B7EE005AF7EE005AB7EE006AF7EE006A21
S31500002D10B7EE007AF7EE007A8EF3008C10B4F1EE7F
S31500002D2010CA4FF66074C0F6FF740CEA040CE1EEAC
S31500002D3010CA10BCF446744708B5FDF757FEBDE847
S31500002D400840714672467346B7EE000AF7EE000A6F
S31500002D50B7EE001AF7EE001AB7EE002AF7EE002AD1
S31500002D60B7EE003AF7EE003AB7EE004AF7EE004A41
S31500002D70B7EE005AF7EE005AB7EE006AF7EE006AB1
S31500002D80B7EE007AF7EE007A8EF3008C10B4F1EE0F
S31500002D9010CA4FF66074C0F6FF740CEA040CE1EE3C
S31500002DA010CA10BCF446744707B501230022194621
S31500002DB00092FDF7A3FF03B05DF804FB012307B5FE
S31500002DC0002200911946FDF799FF03B05DF804FB58
S31500002DD008B5FDF725FEBDE8084070467146724607
S31500002DE07346B7EE000AF7EE000AB7EE001AF7EEE2
S31500002DF0001AB7EE002AF7EE002AB7EE003AF7EE11
S31500002E00003AB7EE004AF7EE004AB7EE005AF7EE80
S31500002E10005AB7EE006AF7EE006AB7EE007AF7EEF0
S31500002E20007A8EF3008C10B4F1EE10CA4FF660747F
S31500002E30C0F6FF740CEA040CE1EE10CA10BCF446AE
S31500002E40744708B5FDF7C2FEBDE8084070467146F6
S31500002E5072467346B7EE000AF7EE000AB7EE001A9E
S31500002E60F7EE001AB7EE002AF7EE002AB7EE003AA0
S31500002E70F7EE003AB7EE004AF7EE004AB7EE005A10
S31500002E80F7EE005AB7EE006AF7EE006AB7EE007A80
S31500002E90F7EE007A8EF3008C10B4F1EE10CA4FF6FE
S31500002EA06074C0F6FF740CEA040CE1EE10CA10BCA4
S31500002EB0F446744770B504460D461646FFF786FE7F
S31500002EC008B9FFF77DFE324629462046FDF7A6FEE5
S31500002ED0BDE87040714672467346B7EE000AF7EEDB
S31500002EE0000AB7EE001AF7EE001AB7EE002AF7EE60
S31500002EF0002AB7EE003AF7EE003AB7EE004AF7EED0
S31500002F00004AB7EE005AF7EE005AB7EE006AF7EE3F
S31500002F10006AB7EE007AF7EE007A8EF3008C10B4F2
S31500002F20F1EE10CA4FF66074C0F6FF740CEA040C9A
S31500002F30E1EE10CA10BCF446744708B5FDF7A6FECC
S31500002F40BDE80840714672467346B7EE000AF7EED2
S31500002F50000AB7EE001AF7EE001AB7EE002AF7EEEF
S31500002F60002AB7EE003AF7EE003AB7EE004AF7EE5F
S31500002F70004AB7EE005AF7EE005AB7EE006AF7EECF
S31500002F80006AB7EE007AF7EE007A8EF3008C10B482
S31500002F90F1EE10CA4FF66074C0F6FF740CEA040C2A
S31500002FA0E1EE10CA10BCF446744708B5FDF720FEE2
S31500002FB0BDE80840714672467346B7EE000AF7EE62
S31500002FC0000AB7EE001AF7EE001AB7EE002AF7EE7F
S31500002FD0002AB7EE003AF7EE003AB7EE004AF7EEEF
S31500002FE0004AB7EE005AF7EE005AB7EE006AF7EE5F
S31500002FF0006AB7EE007AF7EE007A8EF3008C10B412
S31500003000F1EE10CA4FF66074C0F6FF740CEA040CB9
S31500003010E1EE10CA10BCF446744708B5FDF74AFE47
S31500003020BDE80840714672467346B7EE000AF7EEF1
S31500003030000AB7EE001AF7EE001AB7EE002AF7EE0E
S31500003040002AB7EE003AF7EE003AB7EE004AF7EE7E
S31500003050004AB7EE005AF7EE005AB7EE006AF7EEEE
S31500003060006AB7EE007AF7EE007A8EF3008C10B4A1
S31500003070F1EE10CA4FF66074C0F6FF740CEA040C49
S31500003080E1EE10CA10BCF44674472DE9F34114462C
S315000030900546002872D0002A70D002296ED1022B74
S315000030A06CD11021FFF792FD08B9FFF789FD1021B9
S315000030B02046FFF78BFD08B9FFF782FDD4E90067CC
S315000030C039463046D5F80080A468AD68FFF77EFD26
S315000030D0002840D1FFF774FD2A6898F80030394679
S315000030E0009230462246FDF709FE02B0B7EE000A0E
S315000030F0BDE8F041714672467346F7EE000AB7EE38
S31500003100001AF7EE001AB7EE002AF7EE002AB7EE1D
S31500003110003AF7EE003AB7EE004AF7EE004AB7EE8D
S31500003120005AF7EE005AB7EE006AF7EE006AB7EEFD
S31500003130007AF7EE007A8EF3008C10B4F1EE10CA26
S315000031404FF66074C0F6FF740CEA040CE1EE10CA88
S3150000315010BCF446744704212046FFF737FD0028CB
S31500003160B8D004214046FFF731FD0028B2D0042133
S315000031702846FFF72BFD0028ACD0ADE741F203202F
S31500003180B3E710B504210446FFF720FD08B9FFF7A1
S3150000319017FD2046FFF708FEBDE81040714672464F
S315000031A07346B7EE000AF7EE000AB7EE001AF7EE1E
S315000031B0001AB7EE002AF7EE002AB7EE003AF7EE4D
S315000031C0003AB7EE004AF7EE004AB7EE005AF7EEBD
S315000031D0005AB7EE006AF7EE006AB7EE007AF7EE2D
S315000031E0007A8EF3008C10B4F1EE10CA4FF66074BC
S315000031F0C0F6FF740CEA040CE1EE10CA10BCF446EB
S31500003200744738B50D4604210446FFF7DFFC08B9BC
S31500003210FFF7D6FC29462046FFF7D0FDBDE838402B
S31500003220714672467346B7EE000AF7EE000AB7EE2D
S31500003230001AF7EE001AB7EE002AF7EE002AB7EEEC
S31500003240003AF7EE003AB7EE004AF7EE004AB7EE5C
S31500003250005AF7EE005AB7EE006AF7EE006AB7EECC
S31500003260007AF7EE007A8EF3008C10B4F1EE10CAF5
S315000032704FF66074C0F6FF740CEA040CE1EE10CA57
S3150000328010BCF446744708B5FDF78AFDBDE8084052
S31500003290714672467346B7EE000AF7EE000AB7EEBD
S315000032A0001AF7EE001AB7EE002AF7EE002AB7EE7C
S315000032B0003AF7EE003AB7EE004AF7EE004AB7EEEC
S315000032C0005AF7EE005AB7EE006AF7EE006AB7EE5C
S315000032D0007AF7EE007A8EF3008C10B4F1EE10CA85
S315000032E04FF66074C0F6FF740CEA040CE1EE10CAE7
S315000032F010BCF446744770B5D1E90152AA4205D212
S3150000330090F840302B449B1A402B10D9002012E035
S315000033100A6890F84040D65C90F841200133224478
S3150000332002F03F02013486548B6080F840408B687F
S315000033309D42EDD8012070BD2DE9F8431D46174684
S31500003340D1E901329B1A90F84020044613449D426D
S315000033500E469DF820909DF8248056D9FFF7CBFFA6
S3150000336000285CD1132341F2020084F84630BDE800
S31500003370F88394F84120A25CFA5494F84120013372
S31500003380013202F03F0284F8412094F84020013ACD
S3150000339084F8402094F840200AB19D42E9D1D6E94C
S315000033A00121914201D29D4231D89D42DAD129466E
S315000033B03846D4F88820FEF71FFAC4F88800B9F119
S315000033C0000F04D02A463946E06C00F067F9B8F1E0
S315000033D0000F08D094F843308BB12B463A46394655
S315000033E0A06C00F04AF994F8433043B1E36DA26D46
S315000033F02B449342E36524BF002384F84330636D76
S3150000340041F203002B446365B1E70023C2E732684B
S31500003410525CFA54B26801330132B260BFE7002051
S31500003420A5E72DE9F743044658680E461746984621
S31500003430002842D011F0030342D19B6A206E1B691B
S3150000344002EB000C1D1D65451CD81C33984219D291
S315000034508542294638BF01469C4594BFC1EB0C0204
S31500003460C1EB0302081AC5F1680506EB00096818E6
S3150000347020444946019200F09AFDFF214846019AF0
S3150000348000F0A2FD48F20403226E9A420BD848F2DD
S315000034900701B818884206D99B1AF258C4F880204A
S315000034A04FF0FF32F2503A46D8E90035206E3146E9
S315000034B0A8470020226E3A44226603B0BDE8F08396
S315000034C041F20200F9E749BA89B24840C0F3031352
S315000034D0584003B283EA0033580100F4FF509BB210
S315000034E05840704738B5044645181046AC4200D1DE
S315000034F038BD014614F8010BFFF7E5FFF6E708B5FE
S31500003500FFF7E1FFBDE80840714672467346B7EE25
S31500003510000AF7EE000AB7EE001AF7EE001AB7EE49
S31500003520002AF7EE002AB7EE003AF7EE003AB7EEB9
S31500003530004AF7EE004AB7EE005AF7EE005AB7EE29
S31500003540006AF7EE006AB7EE007AF7EE007A8EF3BD
S31500003550008C10B4F1EE10CA4FF66074C0F6FF741A
S315000035600CEA040CE1EE10CA10BCF446744770B5C0
S3150000357004460D461646FFF729FB08B9FFF720FB60
S31500003580324629462046FFF7ADFFBDE8704071463A
S3150000359072467346B7EE000AF7EE000AB7EE001A57
S315000035A0F7EE001AB7EE002AF7EE002AB7EE003A59
S315000035B0F7EE003AB7EE004AF7EE004AB7EE005AC9
S315000035C0F7EE005AB7EE006AF7EE006AB7EE007A39
S315000035D0F7EE007A8EF3008C10B4F1EE10CA4FF6B7
S315000035E06074C0F6FF740CEA040CE1EE10CA10BC5D
S315000035F0F446744770B504460D461646FFF7E6FADC
S3150000360008B9FFF7DDFA324629462046FEF7F4F8F8
S31500003610BDE87040714672467346B7EE000AF7EE93
S31500003620000AB7EE001AF7EE001AB7EE002AF7EE18
S31500003630002AB7EE003AF7EE003AB7EE004AF7EE88
S31500003640004AB7EE005AF7EE005AB7EE006AF7EEF8
S31500003650006AB7EE007AF7EE007A8EF3008C10B4AB
S31500003660F1EE10CA4FF66074C0F6FF740CEA040C53
S31500003670E1EE10CA10BCF446744730B50D4685B06D
S31500003680194600F12803CDE90152009300F1240206
S3150000369000F1380300F0BFFB05B030BD00F00CB8F8
S315000036A0014600F016B86822002100F08DBC002308
S315000036B0C0E900331846704707B500F128030190AA
S315000036C0009300F108030020FEF7C6F903B05DF889
S315000036D004FB02460B4600F128010830FEF7D0B97C
S315000036E0F0B51D4693B0002837D1189B06909B0174
S315000036F0CDE904230AAB0A461E4601F120071C4603
S3150000370010685168083203C4BA422346F7D1002331
S3150000371007960993FEF7D0FE0446D8B920230893EE
S3150000372004AB93E807008DE8070007AB04200ECB37
S3150000373000F0B9FA0746FEF7CBFE8FB92B463246A4
S3150000374012AE154603CDB542186059602A4603F1FC
S315000037500803F6D1204613B0F0BD6FF07104F9E707
S315000037606FF06F04F6E7EFF3108072B6704700B99A
S3150000377062B6704770B5054614460E46FFF7F3FF6E
S31500003780296881EA040202EA06044C402C60BDE87E
S315000037907040FFF7ECBFC369032B9FBF00EB8302AA
S315000037A00133D160C3617047036BDA0702D5036941
S315000037B05B06F9D4704710B5FFF7F6FF012200F556
S315000037C000531A630B79044648881B0243EA804378
S315000037D0487A03434878002814BF4020002003435A
S315000037E0887A002814BF802000200343C87A002866
S315000037F014BF202000200343087B002814BF10209C
S3150000380000200343487B002814BF08200020034300
S31500003810887B002814BF4FF400600020034388799A
S31500003820002814BF4FF4803000200343636004F582
S3150000383080531A630A780AB90223E360002363629D
S31500003840C8790B7A497943EA8003002914BF10210D
S3150000385000210B43A3600AB10123E36010BD13B539
S315000038601AB10024009400F0B3F802B010BDF0B510
S315000038708DB005AC84E807001C46A1420D4628BF62
S315000038802546129B0DB304B311462846002603F5C0
S315000038901813CDE90A468DE8030003F241135F02CF
S315000038A0C5EB4323099302950CAA059B12E9070071
S315000038B0069500F012FAA54207D23146621B381B64
S315000038C00DB0BDE8F04000F006BA0DB0F0BD30B561
S315000038D091B001AC84E807001C461346DA0049BFE4
S315000038E0029A6200033222F00302014604A8FFF79F
S315000038F0B6FF04A800F082F81499224601F51811C3
S3150000390001F241114D0208A8C4EB41210023FFF743
S31500003910A6FF05F5007100232246091B0CA8FFF738
S315000039209EFF0CA800F06AF808A904A8FEF7A2FBFF
S3150000393011B030BD10B58CB005AC84E807000E9A06
S31500003940DDE9060102F5181202F5A0725202CDE970
S31500003950092300228DE803000B9202930CAA059B13
S3150000396012E9070000F0B9F90CB010BD2DE9F04BD3
S315000039704FF0000899460746164645468AB003ACFE
S3150000398084E8070002F0805B07AC049A424502D83F
S315000039900AB0BDE8F08B139B13B9AA1E012A0AD9F7
S315000039A0129BCDE90779099600955BB194E807006B
S315000039B04B46FFF75CFFBBF1000F00D14F440135CA
S315000039C0C844E2E74B4694E80700FFF7B3FFF2E787
S315000039D010B522F0704200F11004C0E900148260B4
S315000039E041B1826803F0704313438360029BC36056
S315000039F0204610BD836843F08043F6E70123436009
S31500003A00C36843F02003C360836843F000538360B8
S31500003A107047C36803F00F03012B02D0033B012B51
S31500003A2008D8C36801F01F0143EA0123C360836815
S31500003A3019448160704737B54D68044645B18C68B6
S31500003A400093096842EA04032A46FFF7C1FF0446C9
S31500003A50204603B030BD2DE9F04F2DED028BD1B0DD
S31500003A60019008EE903ADDE95D59DDE95F870420B3
S31500003A70002301AECDE9030305AB08EE102A07C902
S31500003A8083E80700314618460296619CFEF702FB62
S31500003A900646002840F0B5805C9A08AB07CA83E862
S31500003AA00700D8F80420D9F80430494213445B4291
S31500003AB003F00F0B7B6801F00F0A5B420093AB68C3
S31500003AC0DA0041BF6B68033323F003036B60A3681E
S31500003AD0DB0041BF6368033323F003036360002305
S31500003AE0D9F80400D8F80420CDE9133381185944D5
S31500003AF0CDE90C1369680B93494201F00F01CDE93A
S31500003B000E3161681093494201F00F01CDE9113180
S31500003B10CDE9153317935C9B5B684BB97B68134300
S31500003B20034305D110218A46CDE9091314AA089248
S31500003B3011234FF0005202A930A8FFF77CFF40F690
S31500003B4011034FF0005205A9FFF775FF42F6110366
S31500003B504FF0005218EE901AFFF76DFF44F611036E
S31500003B604FF0005218EE101AFFF765FF41230022AE
S31500003B704946FFF760FF4FEA0B234FF000524146DC
S31500003B8043F04103FFF757FF4FEA0A234FF0005275
S31500003B9043F0010308A9FFF74EFF009B4FF00052C8
S31500003BA01B0203F47063394643F00103FFF743FF3A
S31500003BB01038FFF723FF00230BA91A4618A8FFF7B2
S31500003BC03AFF002329461A46FFF735FF00230EA9C0
S31500003BD01A46FFF730FF002321461A46FFF72BFF50
S31500003BE0002311A91A46FFF726FF002362991A46F9
S31500003BF0FFF721FF1038FFF701FF18A930A8FEF7DD
S31500003C0039FA304651B0BDEC028BBDE8F08F006941
S31500003C10704770B586B003AE054686E80E00FFF71E
S31500003C20F6FF202804463AD86A6800EB80039A42D9
S31500003C3003D0062343439A4233D10B9BB3EB440F85
S31500003C402FD10E9A93422CD1012221463120EB68C6
S31500003C50FEF76EF908BB95E807000123CDE90033AE
S31500003C602346FFF783FE08230AAA009307CA2346C2
S31500003C70FFF72DFE0C23009396E807002346FFF777
S31500003C80F6FD0A230DAA009307CA2346FFF71FFE77
S31500003C90FEF76AF9002818BF032006B070BD0120A0
S31500003CA0FBE70720F9E770B58AB007AC84E80E0099
S31500003CB003AD064694E8070085E80B00012302934E
S31500003CC00EAB019303230093304694E80E00FEF7F3
S31500003CD0E3FA0AB070BD00F077B982B02DE9F04181
S31500003CE08AB005AE12F0804586E80700149C119351
S31500003CF033D1139B8C4228BF0C4613F08053884661
S31500003D00129A02D1944228BF144634B30F2C13D909
S31500003D10DDE912018DE803000294119B96E8070085
S31500003D20FEF74AF9FEF776F9FEF77EF90AB0BDE826
S31500003D30F04102B0FEF78AB9059E119F93B1A8EB38
S31500003D400502042A3B6828BF0422701909A9043514
S31500003D50099300F02CF9AC42F1D80AB0BDE8F04165
S31500003D6002B070472246394630460AB0BDE8F041F7
S31500003D7002B000F01CB92422002100F025B970B56C
S31500003D8015460E4624220021044600F01DF925F0B2
S31500003D904003802B02D0B5F5807F08D120463146FE
S31500003DA040F8045BEA0800F002F9002070BD6FF0ED
S31500003DB01F00FBE730B504680D4624F0400180295A
S31500003DC08BB002D0B4F5807F22D10021CDE9031259
S31500003DD010220430E408CDE90521CDE9073201902F
S31500003DE002940991FEF768FB68B9012D07AA04A998
S31500003DF001A80AD1FEF78CF90446FEF769FB2043B9
S31500003E0018BF6FF06F000BB030BDFEF795F9F3E702
S31500003E106FF07100F7E72DE9F04F82460F4698469E
S31500003E20164691B012B31568DAF8003023F0400256
S31500003E30802A02D0B3F5807F73D1DB080024059376
S31500003E401023CDE908341B9BCDE906480AF104028C
S31500003E503B44049202930DF11C0BBC4208D3002E86
S31500003E6065D00020356011B0BDE8F08F1546DBE760
S31500003E705DB11B9B1A9A1B5D525D013553401C9A1E
S31500003E8005F00F0513550134E7E7A7EB0409B9F16F
S31500003E900F0F1ED91B9B29F00F092344CDE90A39C0
S31500003EA01C9B0C952344CDE90D390F95FEF704FBB9
S31500003EB00028D8D15B460DAA0AA9CDF800B004A8FF
S31500003EC0FEF74EF90390FEF703FB039B03432BD14A
S31500003ED04C441B9B03EB04091C9B1C44029B4B4557
S31500003EE001D13C46B9E78DB94246012150461A9B9D
S31500003EF0FFF760FF0028B6D108F1100212F8013D65
S31500003F000133DBB213700BB99045F7D11A9A19F841
S31500003F10013B525D0135534004F8013B05F00F05A6
S31500003F20DCE76FF071009EE76FF06F009BE73046AD
S31500003F3099E72DE9E04F2746A046A146A246A346AB
S31500003F40A4462DED108B4FF0000545EC185B45ECB3
S31500003F50195A45EC1A5A45EC1B5A45EC1C5A45ECC5
S31500003F601D5A45EC1E5A45EC1F5AF1EE105A4FF6F3
S31500003F706076C0F6FF763540E1EE105A84F300888D
S31500003F8025462646A447BDEC108BBDE8E08F0139D7
S31500003F90024410B5904201D1002005E0037811F8E3
S31500003FA0014FA34201D0181B10BD0130F2E70A44AD
S31500003FB0431E914200D1704710B511F8014B914252
S31500003FC003F8014FF9D110BD02440346934200D1D4
S31500003FD0704703F8011BF9E7F8B500BFF8BC08BC49
S31500003FE09E467047F8B500BFF8BC08BC9E467047B1
S31500003FF0B814B6F1E0CFF3ADB7DD25C9FA79B7133A
S315000040000000000007B0CD5E0200000001000202C1
S315000040105C4400000060000000000800F30410008B
S315000040205F2900006329000069020000872900005B
S31500004030B729000000000000F1290000672A0000EF
S3150000404000000000F90300000000000013B779FA31
S31500004050C925DDB7ADF3CFE0F1B614B80102000013
S315000040600000000058440000400000000100020269
S31500004070000000000000000000000000000000003A
S31500004080000000000000000000000000000000002A
S31500004090000000000000000000000000040000070F
S315000040A000000D1013001A20263038405000000082
S315000040B0EB17A6030201000003000000FA0606FA49
S315000040C00F04000003000000F40A0AF405050000CE
S315000040D001000000EB17A65E0A06000001000000C2
S315000040E0F50909F50307000001000000F60808F6C7
S315000040F00608000000000000FE0101FE080800009E
S3150000410000000000FD0303FD0C0800000000000095
S31500004110F90707F91009000002000000F30B0BF382
S31500004120110A000003000000F70A0AF7120B00004C
S3150000413003000000FC0404FC0D0C0000030000005A
S315000041400000000033260000000000005326000097
S315000041506A09E667BB67AE853C6EF372A54FF53A12
S31500004160510E527F9B05688C1F83D9AB5BE0CD193E
S3150000417080000000000000000000000000000000B9
S315000041800000000000000000000000000000000029
S315000041900000000000000000000000000000000019
S315000041A00000000000000000000000000000000009
S315000041B000000000000000000000004000010000B8
S315000041C000020000000400000008000000100000CB
S315000041D000200000004000000080000000000100F8
S315000041E00000000001000000FFFFFFFF00000001CB
S315000041F0000000000000000000000000FFFFFFFFBD
S31500004200FFFFFFFFFFFFFFFFFFFFFFFF00000000B4
S31500004210FFFFFFFFFFFFFFFFBCE6FAADA7179E8477
S31500004220F3B9CAC2FC6325516B17D1F2E12C4247A0
S31500004230F8BCE6E563A440F277037D812DEB33A05D
S31500004240F4A13945D898C2964FE342E2FE1A7F9B05
S315000042508EE7EB4A7C0F9E162BCE33576B315ECE24
S31500004260CBB6406837BF51F5FFFFFFFF00000001E6
S31500004270000000000000000000000000FFFFFFFF3C
S31500004280FFFFFFFFFFFFFFFC5AC635D8AA3A93E7A8
S31500004290B3EBBD55769886BC651D06B0CC53B0F61B
S315000042A03BCE3C3E27D2604BE8410000C0000000F8
S315000042B000000000000010002000000010141C2068
S315000042C03040204040404080804010142020404034
S309000042D020000000C4
S315000042E07FE97FE9FEF790BA7FE97FE9FEF7A9BD8E
S315000042F07FE97FE9FEF720BD7FE97FE9FDF7D4B9C5
S315000043007FE97FE9FEF751BE7FE97FE9FDF71ABA3B
S315000043107FE97FE9FEF7D7BC7FE97FE9FFF727B999
S315000043207FE97FE9FEF7ABBA7FE97FE9FEF7ABBF2E
S315000043307FE97FE9FEF755BC7FE97FE9FEF796BB8B
S315000043407FE97FE9FEF7A1BE7FE97FE9FEF765BE5B
S315000043507FE97FE9FEF77EBC7FE97FE9FEF751BF83
S315000043607FE97FE9FEF7BBBB7FE97FE9FEF709BF7F
S315000043707FE97FE9FEF79EBD7FE97FE9FEF7E8BBAF
S315000043807FE97FE9FEF7CEB97FE97FE9FFF7B7B8A6
S315000043907FE97FE9FFF72EB97FE97FE9FEF7A7BA44
S315000043A07FE97FE9FEF7C9BD7FE97FE9FEF7F2B94C
S315000043B07FE97FE9FEF70CBD000000000000000069
S315000043C0CC4300001008002023000000F00F10036B
S315000043D000000000BB0A00201300000009000000D6
S315000043E0000100000202000013000000F00F10039D
S315000043F000000000BB0B00201300000009000000B5
S315000044000002000001010000D3FFFFFFF07F103023
S31500004410BB0C0020000000000000000000C00540AA
S315000044202800000000FF000000000000000000005F
S315000044300000000000000000000000000000000076
S315000044400000000000000000000000000000000066
S30D000044506D01000049010000A6
S3150000500000700020EB510000E9510000E95100005A
S31500005010E9510000E9510000E9510000E9510000A2
S31500005020E9510000E9510000E9510000E951000092
S31500005030E9510000E9510000E9510000E951000082
S31500005040E9510000E9510000E9510000E951000072
S31500005050E9510000E9510000E9510000E951000062
S31500005060E9510000E9510000E9510000E951000052
S31500005070E9510000E9510000E9510000E951000042
S31500005080E9510000E9510000E9510000E951000032
S31500005090E9510000E9510000E9510000E951000022
S315000050A0E9510000E9510000E9510000E951000012
S315000050B0E9510000E9510000E9510000E951000002
S315000050C0E9510000E9510000E9510000E9510000F2
S315000050D0E9510000E9510000E9510000E9510000E2
S315000050E0E9510000E9510000E9510000E9510000D2
S315000050F0E9510000E9510000E9510000E9510000C2
S31500005100E9510000E9510000E9510000E9510000B1
S31500005110E9510000E9510000E9510000E9510000A1
S31500005120E9510000E9510000E9510000E951000091
S31500005130E9510000E9510000E9510000E951000081
S3150000514010B5054C237833B9044B13B1044800E07D
S3150000515000BF0123237010BD08700020000000006E
S31500005160EC54000008B5034B1BB10349034800E0AB
S3150000517000BF08BD000000000C700020EC540000C9
S31500005180064B0748DA1C121AC11E22F00302994286
S3150000519088BF0022034900F087B900BF08700020CD
S315000051A000700020F8540000064B0748DA1C121A5B
S315000051B0C11E22F00302994288BF0022002100F09E
S315000051C080B900BF2470002008700020044B054AF7
S315000051D09A60D3F8882042F47002C3F8882070479A
S315000051E000ED00E000500000FEE708B5FFF7EEFF17
S315000051F0FFF7C6FFFFF7D8FF00F00FF9017901228C
S315000052000431033000F033B900F02FB900B5C3B054
S3150000521000F029F9B0F5027F17D14FF4847200210E
S31500005220684600F04EF9A0238DF8033002238DF86E
S31500005230043001238DF8063046238DF8073000230D
S3150000524068468DF80830FFF7D9FF4FF484720021C5
S31500005250684600F036F9A0238DF8033004238DF854
S31500005260043000F0D8F8CDF807006846FFF7C6FF0F
S3150000527043B05DF804FB30B5ADF5097D04464FF447
S315000052808472002146A800F01CF920238DF81B31FA
S3150000529002238DF81C314FF48472002104A800F01B
S315000052A010F94FF47A7500F0E4F80028FBD00123DA
S315000052B00095194603AA0DF1130000F0DCF89DF8DD
S315000052C01330202BEFD101230321009503AA05A853
S315000052D000F0D1F80028DED1039B032BDBD19DF82B
S315000052E0145075B140F6B8332946009303AA01233A
S315000052F00DF1170000F0BFF80028CCD1039B9D42AA
S31500005300C9D19DF81530002B4FD19DF81650022DAE
S315000053100DD0032D1DD0012DBDD18DF81E518DF858
S315000053201F318DF8203146A8FFF768FFB3E7224604
S315000053309DF8171006A800F0B5F88DF81E5128B193
S3150000534041F20703984214BF46200020ADF81F0122
S31500005350E9E763788DF81E512BB3A378002B0CBFB9
S315000053604623002346A8ADF81F31FFF747FF6378B1
S31500005370002B90D0A378002B8DD023785A0705D523
S31500005380E06800F042F808B100F041F823789B0786
S3150000539081D5656800F03FF885427FF67CAFA0684E
S315000053A000F037F877E74623DCE7012B7FF473AF8D
S315000053B09DF81630012B7FF46EAF637833B1A37876
S315000053C023B940F2032000F04CF864E79DF817304B
S315000053D0012B0CBF40F2022040F20120F3E7FFF759
S315000053E013BFFFF713BF1FB510220021684600F058
S315000053F068F8202000F054F8002268461146FFF7AE
S315000054003AFF05B05DF804FB7047FEF7B9BFFEF73B
S31500005410CBBFFEF765BFFEF783BF10B5FFF7DFFF13
S31500005420FFF7DFFF18B14FF4017000F01AF8FFF72D
S31500005430DAFF0446FFF7E8FF1CB140F203739C4213
S3150000544003D140F2012000F00CF8A4F20574012CFF
S3150000545094BF40F203204FF4017000F002F80020E0
S3150000546010BDFEF769BFFEF787BFFEF7A1BFFEF7C7
S315000054707FBFFEF769BF00B58BB08DF807300DF121
S31500005480070302930CAB04930223CDE906010892AD
S31500005490194606AA02A8FEF753FF0BB05DF804FBF7
S315000054A0FEF72ABFFEF730BF0A44431E914200D1E1
S315000054B0704710B511F8014B914203F8014FF9D12D
S315000054C010BD02440346934200D1704703F8011B06
S315000054D0F9E70000F8B500BFF8BC08BC9E46704767
S315000054E0F8B500BFF8BC08BC9E467047F8540000EB
S315000054F000700020020000006551000041510000CC
S31500006000000F002031DC01002DDC010005AC020090
S315000060102DDC010015AC020025AC02002DDC0100D0
S315000060202DDC01002DDC01002DDC01002DDC010042
S315000060302DDC0100107003002DDC01002DDC0100B9
S315000060402DDC01002DDC01002DDC010015E1010035
S315000060502DDC01002DDC0100F1F601002DDC010034
S315000060602DDC01002DDC01002DDC01002DDC010002
S3150000607055BD02002DDC01002DDC01002DDC0100E8
S315000060802DDC01002DDC0100154002002DDC010095
S315000060902DDC0100E9EB01002DDC01002DDC010007
S315000060A02DDC01000DED0100E9EC01002DDC010005
S315000060B02DDC01002DDC01002DDC01002DDC0100B2
S315000060C02DDC01002DDC01002DDC01002DDC0100A2
S315000060D02DDC01002DDC01002DDC01002DDC010092
S315000060E02DDC01002DDC01002DDC01002DDC010082
S315000060F0212802002DDC01002DDC01002DDC010031
S315000061002DDC01002DDC01002DDC01002DDC010061
S315000061102DDC01002DDC01002DDC01002DDC010051
S315000061202DDC01002DDC01002DDC01002DDC010041
S315000061302DDC01002DDC0100F5AD020001AE0200F0
S3150000614010B5054C237833B9044B13B1044800E06D
S3150000615000BF0123237010BD88140020000000003A
S31500006160C0CA030008B5034B1BB10349034800E04E
S3150000617000BF08BD000000008C140020C0CA030048
S31500006180A3F5803A704700BF174B002B08BF134B8F
S315000061909D46FFF7F5FF00218B460F461348144A2C
S315000061A0121A28F0BAFE0E4B002B00D098470D4B62
S315000061B0002B00D098470020002104000D000D4858
S315000061C0002802D00C4800E000BF28F03BFE20006B
S315000061D0290017F08CFC28F057FD00BF00000800CE
S315000061E00000000000000000000F002088140020BE
S315000061F0187B002000000000000000002DE9F0439D
S3150000620089B0054616468DF81F1021B18221344A01
S31500006210344826F02BF94FF405714FF4B267324C2F
S315000062209DF81F000DF11F0301FB00412A4607FBE5
S315000062300040CDE900633944002307F051F8C4203B
S315000062409DF81F104FF0980811FB00F000F6381269
S3150000625000F634102244204406920EF0FBF8842007
S3150000626040F69C099DF81F10204B00FB014002934D
S3150000627001F10F0300F2A470DBB207FB0141CDE987
S315000062800306CDE90053069A042309F0A9F89DF800
S315000062901F10174B18FB019002938B1D2044DBB295
S315000062A007FB0141CDE90306CDE90053069A042315
S315000062B008F0E0F974209DF81F20019618FB029162
S315000062C000FB0240931CDBB2009307FB02422B4605
S315000062D0214400F6280007F04FFC09B0BDE8F08322
S315000062E0102203000F290300A414002081F40000EB
S315000062F00DE7000010B5044620B1A421064A074860
S3150000630026F0B4F84FF4B260054B00FB0430BDE84C
S31500006310104007F05EB800BF10220300F828030003
S31500006320A414002070B505460C4621B1AB210C4AD9
S315000063300C4826F09BF84FF4B2600B4E294600FB42
S31500006340046007F049F8044640B9306810F0FAFADC
S31500006350002814BF012002200DF09AFA204670BDD5
S3150000636010220300E1280300A41400202DE9F047C1
S315000063709DF8288004460D4616461F469DF8209037
S31500006380DDF824A0B8F1000F04D0DC21094A0A4840
S3150000639026F06CF821464FF4B264084833462A4684
S315000063A004FB0800CDE9099A0897BDE8F04706F016
S315000063B0E3BB00BF10220300C8280300A41400207A
S315000063C02DE9F04105460E4617461C4623B1ED2140
S315000063D0074A084826F04AF829464FF4B2650648A7
S315000063E03B46324605FB0400BDE8F04106F029BCF9
S315000063F010220300A9280300A414002038B505467E
S315000064000C4621B1F321074A074826F02FF84FF42E
S31500006410B260064B294600FB0430BDE8384006F062
S3150000642079BB00BF1022030098280300A4140020A3
S3150000643010B5044620B1F921064A074826F016F899
S315000064404FF4B260054B00FB0430BDE8104006F087
S3150000645090BB00BF1022030083280300A414002071
S3150000646010B5044620B1FF21064A074825F0FEFF75
S315000064704FF4B260054B00FB0430BDE8104007F056
S31500006480C3B800BF1022030065280300A41400202F
S3150000649038B505460C4629B140F20511064A0748AB
S315000064A025F0E4FF4FF4B260054B294600FB0430AB
S315000064B0BDE8384006F037BC102203004928030027
S315000064C0A414002038B505460C4629B140F2111136
S315000064D0064A074825F0CAFF4FF4B2614C43054B04
S315000064E029461859BDE838400FF0C8BB10220300F2
S315000064F02F280300A414002010B5044628B140F24A
S315000065002311064A064825F0B1FF4FF4B260054B49
S3150000651000FB0430BDE8104006F046BD1022030023
S315000065201B280300A414002010B5044628B140F22D
S315000065303511064A064825F099FF4FF4B260054B1F
S3150000654000FB0430BDE8104006F03ABF10220300FD
S31500006550FB270300A414002038B505460C4629B1D4
S3150000656040F23B11064A074825F080FF4FF4B2601F
S31500006570054B294600FB0430BDE8384006F023BF32
S3150000658010220300DB270300A414002010B50446E4
S3150000659028B140F24111064A064825F067FF4FF43C
S315000065A0B260054B00FB0430BDE8104006F0FCBEAF
S315000065B010220300B3270300A414002010B50446DC
S315000065C028B140F24711064A064825F04FFF4FF41E
S315000065D0B260054B00FB0430BDE8104006F0E6BB98
S315000065E01022030079270300A414002038B50546BD
S315000065F00C4629B140F24D11064A074825F036FFF0
S315000066004FF4B260054B294600FB0430BDE8384024
S3150000661006F0CEBB1022030061270300A41400205D
S3150000662038B505460C4629B140F25F11064A0748BF
S3150000663025F01CFF2146284616F058FB003818BFE7
S315000066400120404238BD00BF102203004A27030044
S3150000665038B505460C4629B14FF4BB71064A0748C2
S3150000666025F004FF2146284616F062FB003818BFC5
S315000066700120404238BD00BF10220300322703002C
S3150000668038B505460C4629B140F28111064A07483D
S3150000669025F0ECFE22462946002015F04DFD003877
S315000066A018BF0120404238BD102203001B270300FB
S315000066B038B505460C4629B14FF4C671064A074857
S315000066C025F0D4FE22462946012015F035FD003876
S315000066D018BF0120404238BD1022030004270300E2
S315000066E038B50D46044628B140F2A311064A0748BC
S315000066F025F0BCFE4FF4B2604443054B29461859B9
S31500006700BDE838400FF0CEBF10220300AC260300D0
S31500006710A414002010B5044628B140F2B511064A6B
S31500006720064825F0A3FE4FF4B2604443044B1859C3
S31500006730BDE810400FF0D1BE1022030079260300F9
S31500006740A414002010B5044628B140F2CD11064A23
S31500006750064825F08BFE4FF4B260054B00FB043073
S31500006760BDE8104006F032BE102203005326030097
S31500006770A414002010B5044628B140F2D911064AE7
S31500006780064825F073FE4FF4B260054B00FB04305B
S31500006790BDE8104005F05DBE10220300232603006D
S315000067A0A414002070B506460D4629B14FF4F371C6
S315000067B00C4A0D4825F05AFE84230C4C314603FB47
S315000067C0054404F2A474204609F03EF82846FFF773
S315000067D02FFE022804D12046BDE8704008F048BECE
S315000067E070BD00BF10220300E1250300A4140020A1
S315000067F030B4C424054D04FB035413460A4601462F
S3150000680004F6341030BC0DF079BE00BFA41400208D
S3150000681070B505460E4614462AB140F21221084AC2
S31500006820084825F023FEC420074B324600FB0430FF
S315000068302946BDE8704000F634100DF02FBE00BFAB
S3150000684010220300B9250300A414002070B50546E4
S315000068500E4614462AB140F21E21084A084825F081
S3150000686005FEC420074B324600FB04302946BDE82E
S31500006870704000F634100DF026BE00BF1022030053
S3150000688091250300A41400202DE9F04106460F4689
S3150000689090461C462BB140F22A21084A084825F0AA
S315000068A0E5FDC420074D434600FB04503A463146F9
S315000068B0BDE8F04100F634100DF010BE10220300C2
S315000068C067250300A414002070B505460E4614463D
S315000068D02AB140F24321084A084825F0C7FDC420E2
S315000068E0074B324600FB04302946BDE8704000F6EF
S315000068F034100DF029BE00BF102203003F2503000F
S31500006900A41400202DE9F04106460F4690461C4689
S315000069102BB14FF41A71084A084825F0A7FD8420C8
S31500006920074D434600FB04503A463146BDE8F04168
S3150000693000F2A47008F0F2BE10220300192503002D
S31500006940A414002038B505460C4629B14FF41D7134
S31500006950074A084825F08AFD8420074B294600FB94
S315000069600430BDE8384000F2A47008F027BF00BF2D
S3150000697010220300F4240300A41400202DE9F0479C
S315000069809DF8209005460E4617469846B9F1000F29
S3150000699005D04FF42671094A094825F067FD98206D
S315000069A0084C3B4600FB094032462946CDF820807C
S315000069B000F69C00BDE8F04708F0F4B8102203008A
S315000069C0CE240300A414002038B505460C4629B190
S315000069D040F2A321074A084825F048FD9820074BB6
S315000069E0294600FB0430BDE8384000F69C0008F05C
S315000069F013B900BF10220300A9240300A414002029
S31500006A0010B5044628B140F2C921064A064825F0C9
S31500006A102DFD4FF4B260054B00FB0430BDE810407D
S31500006A2006F0F4BC1022030058240300A41400202E
S31500006A304FF4B262024B02FB003006F0FBBC00BF13
S31500006A40A414002038B505460C4629B140F2EB21C6
S31500006A50064A074825F00AFD4FF4B260054B294661
S31500006A6000FB0430BDE8384006F0E7BC1022030006
S31500006A7034240300A414002010B5044628B140F2C3
S31500006A80F121064A064825F0F1FC4FF4B260054BA9
S31500006A9000FB0430BDE8104006F0D8BC102203000D
S31500006AA009240300A414002010B5044628B140F2BE
S31500006AB0FD21064A064825F0D9FC4FF4B260054B85
S31500006AC000FB0430BDE8104006F0A4BC1022030011
S31500006AD0E6230300A414002010B5044628B140F2B2
S31500006AE00931064A064825F0C1FC4FF4B260054B51
S31500006AF000FB0430BDE8104006F094BC10220300F1
S31500006B00C4230300A414002010B5044628B140F2A3
S31500006B100F31054A054825F0A9FC4FF4B260044B35
S31500006B2000FB043010BD00BF102203008D230300BC
S31500006B30A414002013B5044628B14FF44F71074A38
S31500006B40074825F093FC4FF4B260064B00FB043077
S31500006B5002B0BDE8104006F07CBC00BF1022030066
S31500006B6070230300A414002007B528B140F2423177
S31500006B70044A054825F07AFC03B05DF804EB10F0F2
S31500006B804AB800BF10220300442303002DE9F04158
S31500006B9005460E4617461C462BB140F24931084AB7
S31500006BA0084825F063FC29464FF4B26506483B4683
